:020000040800F2
:1000000000500020FD050008C5050008CB050008CC
:1000100000000000000000000000000000000000E0
:10002000000000000000000000000000D1050008F2
:100030000000000000000000DB050008E5050008E6
:100040004D0600084D0600084D0600084D06000844
:100050004D0600084D0600084D0600084D06000834
:10006000000000004D0600084D0600084D0600087F
:100070004D0600084D0600084D0600084D06000814
:100080004D0600084D0600084D060008000000005F
:100090004D0600084D0600084D0600084D060008F4
:1000A0004D0600084D0600084D0600084D060008E4
:1000B0004D0600084D06000800000000000000008A
:1000C00010B5064C2378002B07D1054B002B02D02E
:1000D000044800E000BF0123237010BD0C00002085
:1000E00000000000C4130008044B10B5002B03D01F
:1000F0000349044800E000BF10BDC04600000000F6
:1001000010000020C4130008002243088B4274D35F
:1001100003098B425FD3030A8B4244D3030B8B4208
:1001200028D3030C8B420DD3FF22090212BA030C11
:100130008B4202D31212090265D0030B8B4219D3F2
:1001400000E0090AC30B8B4201D3CB03C01A524112
:10015000830B8B4201D38B03C01A5241430B8B425A
:1001600001D34B03C01A5241030B8B4201D30B0343
:10017000C01A5241C30A8B4201D3CB02C01A52416A
:10018000830A8B4201D38B02C01A5241430A8B422D
:1001900001D34B02C01A5241030A8B4201D30B0216
:1001A000C01A5241CDD2C3098B4201D3CB01C01A30
:1001B000524183098B4201D38B01C01A524143093A
:1001C0008B4201D34B01C01A524103098B4201D328
:1001D0000B01C01A5241C3088B4201D3CB00C01A95
:1001E000524183088B4201D38B00C01A524143080D
:1001F0008B4201D34B00C01A5241411A00D2014632
:10020000524110467047FFE701B5002000F006F8A4
:1002100002BDC0460029F7D076E770477047C04658
:10022000002B11D1002A0FD1002900D1002802D0C3
:100230000021C943080007B4024802A140180290F7
:1002400003BDC046D9FFFFFF03B4684601B502985D
:1002500000F034F8019B9E4602B00CBC7047C046CB
:10026000F0B5CE469946030C9C46130447461B0C3A
:100270001D000E0061460404240C80B50700100C1C
:100280004B436543414360432C0CC01820188C46F7
:10029000834203D980235B029846C444494679438C
:1002A0005643030C2D042D0C891963440004401996
:1002B000C918C0BCB946B046F0BDC046F0B55746F7
:1002C0004E464546DE46E0B504000D00924699468E
:1002D00083B08B4230D82DD04946504600F0BAF852
:1002E00029000600200000F0B5F8331A9846203B9C
:1002F00034D49B4653465A46934042461F005346C9
:1003000093401E00AF423BD8AF4200D179E05B463C
:10031000A41BBD41002B00DA76E0002200230092EE
:10032000019301235A46934001930123424693408F
:10033000009329E08242CFD900220023009201934A
:100340000C9B002B01D01C605D600098019903B0EC
:10035000F0BCBB46B246A946A046F0BD42469B460D
:1003600020239B1A5246DA40414613004A468A40EF
:10037000170042461F43534693401E00AF42C3D965
:1003800000220023009201934346002BD8D0FB07A4
:1003900072081A4346467B080EE0AB4201D1A242E6
:1003A0000CD8A41A9D41012024196D410021013E61
:1003B00024184D41002E06D0AB42EED9013E24193F
:1003C0006D41002EF8D1009801995B4600196941F2
:1003D000002B24DB2B005A464446D3402A00E2403F
:1003E0001C005B461500002B2ADB26009E403300D4
:1003F00026004746BE403200801A99410090019184
:100400009EE7A342BCD882E74246202300219B1AE4
:100410000022009101920122DA40019285E74246D2
:1004200020239B1A2A0046469A402300F340444664
:1004300013432A00E2401C005B461500002BD4DA6F
:1004400042462F002023260097409B1ADE403B00A7
:100450003343CDE710B5002903D100F007F8203071
:1004600002E0080000F002F810BDC0461C21012384
:100470001B04984201D3000C10391B0A984201D387
:10048000000A08391B09984201D30009043902A265
:10049000105C40187047C0460403020201010101CC
:1004A000000000000000000080B500AF00F0D0F8B0
:1004B00000F004F800F056F8FEE7000090B593B0A5
:1004C00000AF14243B19180034231A00002100F057
:1004D0004DFF3B00180014231A00002100F046FFD6
:1004E0001E4B1B681E4A1A401C4B802109010A43FF
:1004F0001A6021007B1810221A607B1801229A6171
:100500007B180022DA617B18A02212021A627B1883
:1005100000225A627B18180000F0BEF9031E01D0B9
:1005200000F036F83B000F221A603B0000225A60B0
:100530003B0000229A603B000022DA603B00002270
:100540001A613B000021180000F022FD031E01D0BB
:1005500000F01EF8C046BD4613B090BD00700040CC
:10056000FFE7FFFF80B582B000AF084BDA6A074BA8
:1005700001210A43DA62054BDB6A012213407B60EA
:100580007B68C046BD4602B080BDC0460010024038
:1005900080B500AF72B6C046FEE7000080B500AF80
:1005A000074B5A6B064B01210A435A63044B9A6B63
:1005B000034B802149050A439A63C046BD4680BD6E
:1005C0000010024080B500AFFEE780B500AFFEE747
:1005D00080B500AFC046BD4680BD80B500AFC04607
:1005E000BD4680BD80B500AF00F086F8C046BD4670
:1005F00080BD80B500AFC046BD4680BD0D48854674
:10060000FFF7F7FF0C480D490D4A002302E0D458CC
:10061000C4500433C4188C42F9D30A4A0A4C00234C
:1006200001E013600432A242FBD300F0A7FEFFF703
:100630003BFFFEE700500020000000200C000020DF
:10064000081400080C0000202C000020FEE7000029
:1006500080B582B000AFFB1D00221A700B4B1A68E8
:100660000A4B40210A431A60032000F011F8031ED0
:1006700003D0FB1D01221A7001E0FFF78FFFFB1D65
:100680001B781800BD4602B080BDC0460020024065
:1006900090B583B000AF7860144B1C68144B1B7886
:1006A0001900FA239800FFF72FFD0300190020001E
:1006B000FFF72AFD0300180000F0E1F8031E01D047
:1006C00001230FE07B68032B0BD8796801235B4281
:1006D0000022180000F0BEF8064B7A681A6000236A
:1006E00000E001231800BD4603B090BD00000020CB
:1006F000080000200400002080B500AF054B1B78E7
:100700001A00054B1B68D218034B1A60C046BD4641
:1007100080BDC046080000202800002080B500AF42
:10072000024B1B681800BD4680BDC0462800002053
:1007300090B583B000AF02003960FB1D1A70FB1D3D
:100740001B787F2B28D82F4AFB1D1B785BB29B0898
:10075000C0339B009B58FA1D1278110003220A40F7
:10076000D200FF2191400A00D2431A4011003B6899
:100770009B01FF221A40FB1D1B7818000323034036
:10078000DB009A401F48FB1D1B785BB29B080A43A5
:10079000C0339B001A5031E01B4AFB1D1B78190027
:1007A0000F230B40083B9B0806339B00D3180433F0
:1007B0001B68FA1D1278110003220A40D200FF21A3
:1007C00091400A00D2431A4011003B689B01FF226E
:1007D0001A40FB1D1B78180003230340DB009A40DE
:1007E0000948FB1D1B781C000F232340083B9B0876
:1007F0000A4306339B00C31804331A60C046BD4643
:1008000003B090BD00E100E000ED00E080B582B0F3
:1008100000AF78607B685A1E80235B049A4201D344
:10082000012310E00A4B7A68013A5A6001235B42C7
:1008300003211800FFF77CFF054B00229A60044B50
:1008400007221A6000231800BD4602B080BDC046D2
:1008500010E000E080B584B000AFB9607A600F218D
:100860007B18021C1A70BA687B181B785BB21100E7
:100870001800FFF75DFFC046BD4604B080BD80B5DF
:1008800082B000AF78607B681800FFF7BFFF0300FD
:100890001800BD4602B080BDB0B58AB000AF786028
:1008A0007B68002B02D1012300F06CFBC84BDB6896
:1008B0000C221340FB61C64BDA6880235B021340B5
:1008C000BB617B681B680122134000D17DE0FB699E
:1008D000082B07D0FB690C2B12D1BA6980235B026D
:1008E0009A420DD1BA4B1A6880239B02134000D163
:1008F0006AE07B685B68002B66D1012300F042FB55
:100900007B685A6880235B029A4207D1B04B1A6811
:10091000AF4B802149020A431A6027E07B685A687E
:10092000A023DB029A420ED1A94B1A68A84B802162
:10093000C9020A431A60A64B1A68A54B80214902D6
:100940000A431A6012E0A24B1A68A14BA1490A405F
:100950001A609F4B1A6880235B021340FB60FB68A0
:100960009B4B1A689A4B9C490A401A607B685B68EB
:10097000002B14D0FFF7D2FE03007B6108E0FFF7E5
:10098000CDFE02007B69D31A642B01D90323F9E25F
:100990008F4B1A6880239B021340F0D015E0FFF7BD
:1009A000BDFE03007B6108E0FFF7B8FE02007B6933
:1009B000D31A642B01D90323E4E2854B1A68802300
:1009C0009B021340F0D100E0C0467B681B68022206
:1009D000134000D199E07B68DB687B627B6A202250
:1009E000134009D07A4B1A68794B20210A431A60C8
:1009F0007B6A202293437B62FB69042B05D0FB6951
:100A00000C2B3ED1BB69002B3BD1714B1B680422E0
:100A1000134004D07B6A002B01D10123B2E26C4B5E
:100A20005B686E4A134019007B681B691A02684BA9
:100A30000A435A60664B1B68092293431900644BB2
:100A40007A6A0A431A6000F0EBFB0100604BDB6836
:100A50001B090F221340624AD35C0A00DA40614B43
:100A60001A60614B1B6813257C191800FFF710FEF4
:100A7000030023707B191B78002B46D07B191B7851
:100A800080E27B6A002B27D0514B1B6809229343DD
:100A900019004F4B7A6A0A431A60FFF73FFE0300C2
:100AA0007B6108E0FFF73AFE02007B69D31A022B54
:100AB00001D9032366E2464B1B6804221340F1D0A0
:100AC000434B5B68454A134019007B681B691A0257
:100AD0003F4B0A435A6018E03D4B1A683C4B0121DA
:100AE0008A431A60FFF71AFE03007B6108E0FFF7F4
:100AF00015FE02007B69D31A022B01D9032341E2C0
:100B0000334B1B6804221340F1D17B681B68102211
:100B1000134000D1A1E0FB69002B40D12C4B1A6897
:100B200080239B00134005D07B689B69002B01D17B
:100B3000012327E2264B5B682C4A134019007B688F
:100B40001A6A234B0A435A60214B5B681B02190A3D
:100B50007B68DB691A061E4B0A435A607B681B6A76
:100B60005B0B0133802212029A40194BDB681B0990
:100B70000F210B401A49CB5CDA401A4B1A601A4B12
:100B80001B6813257C191800FFF782FD03002370F2
:100B90007B191B78002B60D07B191B78F2E17B68F6
:100BA0009B69002B3FD00A4B1A68094B80214900F2
:100BB0000A431A60FFF7B2FD03007B6118E0FFF7FC
:100BC000ADFD02007B69D31A022B11D90323D9E1B1
:100BD00000100240FFFFFEFFFFFFFBFFFFE0FFFFF3
:100BE000DC1300080000002004000020FF1FFFFFAE
:100BF000C94B1A6880239B001340E0D0C64B5B684A
:100C0000C64A134019007B681A6AC34B0A435A60EC
:100C1000C14B5B681B02190A7B68DB691A06BE4B75
:100C20000A435A6019E0BC4B1A68BB4BBC490A40E6
:100C30001A60FFF773FD03007B6108E0FFF76EFDAC
:100C400002007B69D31A022B01D903239AE1B24B2C
:100C50001A6880239B001340F0D17B681B68082230
:100C6000134036D07B685B69002B19D0AA4B1A6DF4
:100C7000A94B01210A431A65FFF750FD03007B6170
:100C800008E0FFF74BFD02007B69D31A022B01D964
:100C9000032377E1A04B1B6D02221340F1D018E033
:100CA0009D4B1A6D9C4B01218A431A65FFF736FD57
:100CB00003007B6108E0FFF731FD02007B69D31A76
:100CC000022B01D903235DE1934B1B6D02221340DC
:100CD000F1D17B681B680422134000D1AEE02320D1
:100CE0003B1800221A708C4B9A6B80235B051340D3
:100CF00009D1894B9A6B884B802149050A439A6335
:100D00003B1801221A70874B1A6880235B0013403E
:100D10001AD1844B1A68834B802149000A431A6018
:100D2000FFF7FCFC03007B6108E0FFF7F7FC020023
:100D30007B69D31A642B01D9032323E1794B1A6809
:100D400080235B001340F0D07B689A6880235B00AF
:100D50009A4207D1704B1A6D6F4B802149000A43AC
:100D60001A6531E07B689B68002B0CD16A4B1A6DC9
:100D7000694B6B490A401A65674B1A6D664B6A49A5
:100D80000A401A6520E07B689A68A023DB009A423B
:100D90000ED1614B1A6D604B8021C9000A431A6560
:100DA0005D4B1A6D5C4B802149000A431A650BE0CC
:100DB000594B1A6D584B5A490A401A65564B1A6DD1
:100DC000554B59490A401A657B689B68002B15D022
:100DD000FFF7A4FC03007B6109E0FFF79FFC020022
:100DE0007B69D31A514A934201D90323CAE04A4B83
:100DF0001A6D80239B001340EFD014E0FFF78EFCA8
:100E000003007B6109E0FFF789FC02007B69D31ACC
:100E1000464A934201D90323B4E03F4B1A6D802325
:100E20009B001340EFD12323FB181B78012B05D126
:100E3000394B9A6B384B3E490A409A637B685B6A30
:100E4000002B00D19DE0FB690C2B00D176E07B6884
:100E50005B6A022B45D1304B1A682F4B35490A404B
:100E60001A60FFF75BFC03007B6108E0FFF756FCAC
:100E700002007B69D31A022B01D9032382E0264B9F
:100E80001A6880239B041340F0D1234BDB682A4A65
:100E9000134019007B689A6A7B68DB6A1A437B6897
:100EA0001B6B1A431C4B0A43DA601B4B1A681A4B24
:100EB000802149040A431A60FFF730FC03007B617C
:100EC00008E0FFF72BFC02007B69D31A022B01D943
:100ED000032357E0104B1A6880239B041340F0D083
:100EE0004FE00D4B1A680C4B12490A401A60FFF78D
:100EF00015FC03007B6108E0FFF710FC02007B6932
:100F0000D31A022B01D903233CE0034B1A68802338
:100F10009B041340F0D134E000100240FF1FFFFF9C
:100F2000FFFEFFFF00700040FFFBFFFF8813000083
:100F3000FFFFFFEFFFFFFFFEFFFF02FF7B685B6A23
:100F4000012B01D101231DE0104BDB68BB61BA69A5
:100F500080235B021A407B689B6A9A420FD1BA6970
:100F6000F0239B031A407B68DB6A9A4207D1BA6977
:100F7000C0231B041A407B681B6B9A4201D00123DB
:100F800000E000231800BD460AB0B0BD00100240CA
:100F9000B0B584B000AF786039607B68002B01D1B8
:100FA000012328E1964B1B68012213403A689A42BC
:100FB0001ED9934B1B68012293431900904B3A684A
:100FC0000A431A60FFF7AAFB0300FB6009E0FFF782
:100FD000A5FB0200FB68D31A8A4A934201D9032376
:100FE00009E1874B1B68012213403A689A42EED10F
:100FF0007B681B680222134009D0834BDB68F02218
:10100000934319007B689A687F4B0A43DA607B68D8
:101010001B680122134000D189E07B685B68022BCA
:1010200007D1794B1A6880239B02134020D10123FA
:10103000E1E07B685B68032B07D1734B1A68802360
:101040009B04134014D10123D5E07B685B68012B1E
:1010500006D16D4B1B680422134009D10123CAE05D
:10106000694B1A6880239B00134001D10123C2E021
:10107000654BDB680322934319007B685A68624B17
:101080000A43DA60FFF74AFB0300FB607B685B689A
:10109000022B11D109E0FFF741FB0200FB68D31AD4
:1010A000584A934201D90323A5E0574BDB680C2231
:1010B0001340082BEFD13AE07B685B68032B11D11A
:1010C00009E0FFF72BFB0200FB68D31A4D4A93425D
:1010D00001D903238FE04C4BDB680C2213400C2B0F
:1010E000EFD124E07B685B68012B1BD109E0FFF79F
:1010F00015FB0200FB68D31A424A934201D903232D
:1011000079E0414BDB680C221340042BEFD10EE059
:10111000FFF704FB0200FB68D31A3A4A934201D955
:10112000032368E0384BDB680C221340F0D1344BCA
:101130001B68012213403A689A421ED2304B1B684A
:101140000122934319002E4B3A680A431A60FFF7B5
:10115000E5FA0300FB6009E0FFF7E0FA0200FB6834
:10116000D31A284A934201D9032344E0244B1B6835
:10117000012213403A689A42EED17B681B68042230
:10118000134009D0204BDB68204A134019007B68CC
:10119000DA681D4B0A43DA607B681B68082213403B
:1011A0000AD0194BDB681A4A134019007B681B6987
:1011B000DA00154B0A43DA6000F032F80100124BF6
:1011C000DB681B090F221340124AD35C0A00DA4085
:1011D000114B1A60114B1B680B257C191800FFF787
:1011E00057FA030023707B191B78002B02D07B1960
:1011F0001B7800E000231800BD4604B0B0BDC04617
:10120000002002408813000000100240FFF8FFFF9A
:10121000FFC7FFFFDC1300080000002004000020CF
:10122000B0B58EB000AF4C4BDB68FB62FA6A0C23A2
:1012300013400C2B14D000D97BE0042B02D0082BD8
:101240000BD076E0444B1B681022134002D0434B76
:101250003B637CE0424B3B6379E0424B3B6376E08F
:10126000FB6A9A0C0F231A403F4B9B5CBB62FB6AE4
:101270009A0D0323134001337B62374BDA688023D6
:101280005B0213401AD0BB6ABB610023FB61354A85
:101290000023B869F969FEF7E3FF02000B001000B4
:1012A00019007B6A3B6100237B613A697B69FEF729
:1012B000B7FF02000B0013007B6337E0264B1B686F
:1012C000102213401AD0BB6ABB600023FB60234A84
:1012D0000023B868F968FEF7C3FF02000B00100096
:1012E00019007B6A3B6000237B603A687B68FEF7ED
:1012F00097FF02000B0013007B6317E0BB6A180026
:1013000000231900164A0023FEF7AAFF02000B0073
:10131000100019007B6A1C0000231D0022002B0016
:10132000FEF77EFF02000B0013007B637B6B3B63C9
:101330000DE0094B5B685B0B072213403B623B6A85
:101340000133802212029A4013003B63C0463B6B7C
:101350001800BD460EB0B0BD0010024000093D00AF
:101360000024F40000127A00EC1300080300821835
:10137000934200D1704719700133F9E770B5002628
:101380000C4C0D4D641BA410A64209D1002600F0A0
:1013900019F80A4C0A4D641BA410A64205D170BD71
:1013A000B300EB5898470136EEE7B300EB58984787
:1013B0000136F2E7001400080014000804140008C5
:1013C00000140008F8B5C046F8BC08BC9E4670473B
:0C13D000F8B5C046F8BC08BC9E4670474B
:1013DC0000000000000000000102030406070809D9
:0C13EC00030406080C101820300000005C
:0813F800C4EEFF7F01000000BC
:04140000E9000008F7
:04140400C10000081B
:0C140800000020000400000001000000B3
:04000005080005FDED
:00000001FF
